:1000000012C04EC1B3C10EC229C028C027C026C02D
:1000100026C216C223C022C021C020C01FC01EC0DD
:100020001DC01CC01BC011241FBECFE5D4E0DEBF25
:10003000CDBF10E0A0E6B0E0E4E4F7E002C0059038
:100040000D92A836B107D9F720E0A8E6B0E001C0CC
:100050001D92AA38B207E1F725D272C3D1CFE2E7E9
:10006000F0E08BE0DF011D928A95E9F7DF0141E0C6
:1000700090E084E020E03081330F308330918000C5
:10008000311104C030917F00332301F1509182007F
:100090003081352B3083250F1092800081508111E3
:1000A000EACF30918000311104C030917F003323BA
:1000B00079F030918200230F1092800020FF0AC057
:1000C0009A3061F09F5F319640E0D3CF0000D6CFE9
:1000D0000000E7CF9F5F31969B3059F66DE770E0E7
:1000E00090E02D91392F92276A177B07D1F72313C0
:1000F00001C0842F0895CF93DF93CDE6D0E0E2E7EF
:10010000F0E022E730E0DF018991982F9F7011968F
:100110009C93119782958F708C9312962C173D07A4
:1001200099F780917C006CE770E0A2E7B0E09D91C8
:1001300089276A177B07D9F78E7F80937C00A2E717
:10014000B0E08D91C82FD0E020E030E090E0AE012B
:10015000022E02C0559547950A94E2F74170942704
:100160002F5F3F4F2430310591F7ED012197880F24
:10017000892B88836A177B0721F7ADE7B0E061918F
:1001800020E030E080E070E0AB01022E02C0559527
:1001900047950A94E2F74170880F842B2F5F3F4FF9
:1001A0002530310589F7EF0121978883AE17BF0706
:1001B00031F7DF91CF91089589E0909185009830D3
:1001C00010F40000FACFC39810928500909185003A
:1001D000983010F40000FACFC39A10928500815035
:1001E0008111EBCF0895E2E7F0E06DE770E020E0E9
:1001F00030E01DC00000809185008830D8F38081F8
:1002000090E0022E02C0959587950A94E2F78170DE
:1002100099278417950771F4C3981092850041506F
:10022000510948F72F5F3F4F2530310529F041E054
:1002300050E0E1CFC39AF1CF31966E177F07B9F640
:1002400008955D9BFECF8CB908958BB18CB1089554
:10025000CF93DF93EC018991811103C0DF91CF919E
:100260000895EFDFF8CFCF93DF9380E690E0F0DFE3
:10027000C2E7D0E089918A3050F4805DE2DF80E00F
:10028000CC37D807B9F78DE0DF91CF91DACF895C11
:10029000F5CF109281001092800010928300089593
:1002A0001F920F920FB60F9211242F933F934F93EB
:1002B0005F936F937F938F939F93AF93BF93EF93CE
:1002C000FF93809189008093880010928900789430
:1002D000809188009DED980F9E3790F0DADFFF91B6
:1002E000EF91BF91AF919F918F917F916F915F91AE
:1002F0004F913F912F910F900FBE0F901F90189527
:100300009091810091110DC081568F3340F781E0AB
:100310008093810080B382FB882780F980938200DC
:10032000DECF9091820090938400813678F08091A6
:1003300083008111AEDF81E090918400911180E013
:100340008093820081E080938000C9CF833231F2B4
:1003500080918300811104C081E080938300BFCF2E
:1003600081E08093800010928300B9CF0F920FB686
:100370000F921F9211245F936F937F938F939F939C
:10038000AF93BF9380917D00811117C0849923C0E2
:1003900080917E00082E000C990B019662E070E0BF
:1003A0006DD180937E0080917E00813091F4C19A5E
:1003B0001DBC1CBC81E080937D00BF91AF919F91DB
:1003C0008F917F916F915F911F900F900FBE0F9053
:1003D0001895C198EDCF80917F00082E000C990BE5
:1003E000019662E070E04AD180937F0080917F00A7
:1003F000811107C0C09A85B5896185BD8BB78064BE
:100400008BBF80917F00813099F6C09885B5867E3C
:1004100085BD12BE83B7816083BF8BB78F7B8BBFD7
:10042000C398C6CF8F938FB78F93809189008F3FEA
:1004300019F08F5F809389008F918FBF8F911895EE
:100440008F938FB78F93809185008F5F893008F0ED
:1004500080E0809385008F918FBF8F9118951F92B8
:100460001FB61F92112410927D001F901FBE1F9077
:10047000189585B5886185BD85B5816085BD89B7CD
:10048000806889BF80E283BD089589B7816089BF94
:10049000089510BC84E389B98AB188618AB986E875
:1004A00080BD089585B7896085BF8BB7806C8BBF91
:1004B00087B38B6087BB8EB583608EBD89B7846040
:1004C00089BF81B3877E81BB82B3886182BBD1DF64
:1004D000DCDFDFDF789410928700C09A85B58160F9
:1004E00085BD12E080917F00882309F450C080917F
:1004F0007F008130B9F780E090E004D180938600DE
:10050000EE24E394F12CC0E0D0E080918600082E28
:10051000000C990BC817D9072CF71092850045E0FD
:1005200050E0B7018DE690E0DDD0E5DD05E080919B
:100530007F008823B9F240DE56DE01500111F7CF6B
:100540008FE798E321E0815090402040E1F700C020
:100550000000219685E0E80EF11CD7CF00008091C5
:100560008000811104C080917F008823B9F38091BD
:100570008200882319F0809187008F5F8093870025
:100580001092800080917F00813009F474C08091C6
:100590008700893020F363DD813009F06CC0F89466
:1005A00062DE84E690E054DE80917E00813009F0C6
:1005B00052C0A2E7B0E090E0E92FE695F0E02D917F
:1005C000E359FF4F80818295807F2F70822B80833B
:1005D0009F5F9A3089F780E090E094D087FD80E0BB
:1005E00080938600EE24E394F12CC0E0D0E02091CB
:1005F0008600822F022E000C990BC817D907C4F071
:100600002A354CF525E0289FB001299F700D112453
:100610006F5F7F4F45E050E08DE690E07BD06091CA
:1006200086006F5F6093860080E090E07CD013C00E
:1006300045E050E0B70188E690E054D045E050E056
:1006400068E670E08DE690E040D0219625E0E20E6D
:10065000F11C892B61F688B3812788BB8FEF94E367
:100660002CE0815090402040E1F700C0000088B3AA
:10067000812788BB78941092870034CF97FB072E90
:1006800016F4009406D077FD08D00BD007FC05D0F7
:100690003EF4909581959F4F0895709561957F4F99
:1006A0000895AA1BBB1B51E107C0AA1FBB1FA617B9
:1006B000B70710F0A61BB70B881F991F5A95A9F70B
:1006C00080959095BC01CD010895FB01DC0104C02B
:1006D0008D910190801921F441505040C8F7881B3A
:1006E000990B0895DC01CB01FC01E199FECF06C016
:1006F000FFBBEEBBE09A31960DB20D9241505040D7
:10070000B8F70895E199FECF9FBB8EBBE09A992779
:100710008DB30895DC01CB0102C02D9105D041506D
:100720005040D8F70895262FE199FECF9FBB8EBB8E
:100730002DBB0FB6F894E29AE19A0FBE0196089588
:04074000F894FFCF5B
:080744000D3078006F6B0D0011
:00000001FF
